:100000000C9446000C9465000C9465000C946500FB
:100010000C9465000C9465000C9465000C946500CC
:100020000C9465000C9465000C9465000C946500BC
:100030000C9465000C94EC000C9465000C94650025
:100040000C9465000C9465000C9465000C9465009C
:100050000C9465000C9465000C9465000C9465008C
:100060000C9465000C9465000C9465000C9465007C
:100070000C9465000C9465000C9465000C9465006C
:100080000C9465000C9465000C94650011241FBE4F
:10009000CFEFD0E4DEBFCDBF11E0A0E0B1E0E6E6F7
:1000A000F0E100E00BBF02C007900D92AC37B10742
:1000B000D9F711E0ACE7B1E001C01D92AE3BB1074A
:1000C000E1F70E9478050C9431080C940000029727
:1000D00018F481E090E002C080E090E0813091056A
:1000E000F1F548990DC0499B0BC04A9B09C04B9B39
:1000F00007C02091B201223019F01092B201089588
:10010000489B0EC049990CC04A9B0AC04B9B08C033
:100110002091B201233021F021E02093B201089513
:10012000489B0EC0499B0CC04A990AC04B9B08C013
:100130002091B201222321F022E02093B201089500
:10014000489B0DC0499B0BC04A9B09C04B9907C0F7
:100150002091B201213019F023E02093B2010895DB
:100160006093100170931101809312019093130119
:1001700060937C0170937D0180937E0190937F0159
:1001800008958BE0809381008DE790E09093890043
:100190008093880082E080936F0010928500109217
:1001A00084008091100190911101A0911201B091F1
:1001B000130180937C0190937D01A0937E01B09305
:1001C0007F018FB780688FBF0895109281000895D6
:1001D00081E08093800108951F920F920FB60F92D5
:1001E00011240BB60F922F933F934F935F936F930E
:1001F0007F938F939F93AF93BF93EF93FF938091E0
:100200007C0190917D01A0917E01B0917F010197C9
:10021000A109B10980937C0190937D01A0937E0197
:10022000B0937F01892B8A2B8B2B91F40E94E800DD
:100230008091100190911101A0911201B0911301D0
:1002400080937C0190937D01A0937E01B0937F0108
:10025000FF91EF91BF91AF919F918F917F916F919E
:100260005F914F913F912F910F900BBE0F900FBE5A
:100270000F901F9018950F931F93CF93DF93B62F76
:10028000A72FF82FE92F022F132FD42FC52F04C02B
:10029000062F172FD82FC92F6B2F7A2F8F2F9E2F16
:1002A000202F312F4D2F5C2F0E944706B02FA12FFA
:1002B000FD2FEC2F611571058105910549F7602F20
:1002C000712F8D2F9C2FDF91CF911F910F9108954A
:1002D00040E050E00CC000002F5F3F4F02C020E024
:1002E00030E0273063E03607B4F34F5F5F4F4817C5
:1002F0005907ACF308955E9888B95F9A00005F983B
:1003000082E090E00E946801089581E00E947B01F4
:100310000895813120F481580E947B010895815510
:100320000E947B01089584E690E00E94680188E3C2
:100330000E947B0186E00E947B018FE00E947B018E
:1003400081E00E947B018AE090E00E9468010895AC
:100350005E9A88B95F9A00005F9881E090E00E9401
:10036000680108950F931F93CF93DF93D82F8B01CC
:10037000C0E00FC08D2F880F880F880F8C2B8064F2
:100380000E947B01F801EC0FF11D80810E94A80101
:10039000CF5FC83078F3DF91CF911F910F9108950F
:1003A000EF92FF920F931F93CF93DF93182FEB01E0
:1003B0000E9485010EC001E0010F812F0E9489017A
:1003C0007E018FEFE81AF80A88810E94A801102F99
:1003D000E70188818111EFCFDF91CF911F910F91BC
:1003E000FF90EF900895CF93C62F0E9489018C2F24
:1003F0000E94A801CF910895F999FECF92BD81BDC9
:1004000060BDFA9AF99A0895F999FECF92BD81BD1F
:10041000F89A80B50895AC0120E012C0E22FF0E018
:10042000EE0FFF1FE40FF51F0190F081E02DE90FA3
:10043000F11D60839F5F01C090E0983078F32F5FDB
:100440002830D0F3089570E0660F771F860F971F4E
:10045000DC01ED91FC91E40FF11D20830895242F20
:10046000472F0E9423020895CF93DF93DC0180E0A1
:100470001EC0282F30E0220F331FFD01E20FF31FB3
:100480000190F081E02D492F50E0E40FF51FEB01C2
:10049000C20FD31F28813981E901C40FD51F2881DC
:1004A00020839F5F01C090E0983018F38F5F883001
:1004B000D0F3DF91CF910895AC0190E08FEF17C09A
:1004C000E62FF0E0EE0FFF1FE40FF51F0190F08123
:1004D000E02DE90FF11D2081222331F0E92FF0E01A
:1004E000E050FF4F208101C02FEF82239F5F9830A3
:1004F00038F308950F931F93CF93029718F401E0F8
:1005000010E002C000E010E001301105D1F4ADEAC6
:10051000B1E01B96CC911B97EC2FF0E0E85FFE4F0B
:10052000808182B96C2F19968D919C911A970E94A7
:100530005C0285B9C73011F0CF5F01C0C0E0C09345
:10054000B801C801CF911F910F9108950F931F9388
:10055000CF93DF938C0188E090E00E946906EC0164
:10056000C801880F991F0E946906998388831B829E
:100570001A821D821C821F830E83CE01DF91CF91D0
:100580001F910F910895FC012481358181E0232B77
:1005900009F080E00895FC0144815581268137816E
:1005A00081E04217530709F080E00895FC011382AF
:1005B0001282158214820895FC012481358186817E
:1005C000978128173907B0F480819181A281B38186
:1005D000AA0FBB1FA80FB91F6D937C9384819581CF
:1005E000019695838483828193810196938382838C
:1005F00080E0089581E00895FC0184819581009751
:1006000099F00197958384832281338121503109A8
:10061000338322830190F081E02D220F331FE20FFC
:10062000F31F80819181089580E090E00895CF9339
:10063000DF93EC010E94C30281110CC048815981F3
:100640002A813B81C90181509048880F991F840FEE
:10065000951F02C080E090E0DF91CF910895EF9266
:10066000FF921F93CF93DF937C0181E0F701828398
:100670008FEF9FEF0E94A602F7019483838364E0CB
:1006800074E00E94DC02F701838194810E941703C9
:10069000F7019183808383E08583868384E0878369
:1006A000108680E190E00E9469069093B7018093E4
:1006B000B60110E011C02091B6013091B701C12FF1
:1006C000D0E0CC0FDD1FC20FD31F88E090E00E9466
:1006D0006906998388831F5F183068F360E0F7012B
:1006E000818592850E940B02F70113861486DF91A3
:1006F000CF911F91FF90EF900895CF93DF93EC017E
:100700008D81811106C0E881F9816081718171500C
:1007100017C0813031F4E881F98160816F5F7181A8
:100720000FC0823031F4E881F981608171817F5F8F
:1007300007C0833029F4E881F981608161507181BB
:100740008B819C810E94DC028B819C810E9417031B
:1007500099838883DF91CF910895EF92FF920F9351
:100760001F93CF938C01DC01ED90FC90F701808109
:10077000883018F48181883020F081E0D801189603
:100780008C93C1E01AC0F801838194810E94170301
:100790002C2F30E0220F331FFC01E21BF30BD7019B
:1007A0009C918081981308C011969C918181981327
:1007B00003C081E0F8018087CF5FD80112968C9149
:1007C000C81708F3CF911F910F91FF90EF900895F4
:1007D000CF93DF93FC01A081B1819C918681981316
:1007E00022C011969C91878198131DC0EF018281D0
:1007F0008F5F82830E94E10787709078992324F4A9
:100800000197886F9F6F01968E830E94E107877022
:100810009078992324F40197886F9F6F01968F83B6
:100820008C858F5F8C87DF91CF91089561E0FC010B
:10083000818592850E940B0208950F931F93CF9399
:100840008C01DC0118968C911897882341F060E0A8
:1008500019968D919C911A970E940B0227C060E017
:10086000F801818592850E940B02C0E014C0D80176
:10087000ED91FC9111972C2F30E0220F331FE21BDA
:10088000F30B6081718141E019968D919C911A97CB
:100890000E942F02CF5FF8018281C81740F3668162
:1008A000778141E0818592850E942F02CF911F912F
:1008B0000F910895CF93DF93EC0181E090E00E94C7
:1008C0000402682F80E090E00E94FC016C8581E0CA
:1008D00090E00E94FC01DF91CF910895CF93DF93C8
:1008E000EC0181309105C1F01CF4009741F011C07A
:1008F0008230910539F08330910581F00AC0C1E062
:10090000D0E00CC08091B501882341F0C3E0D0E075
:1009100005C0C0E0D0E002C0C2E0D0E0C230D105E6
:1009200079F0C330D105E9F0C130D10511F58DEA78
:1009300091E00E942F038DEA91E00E941D0419C0EE
:100940008DEA91E00E947D038DEA91E00E94AD0363
:100950008DEA91E00E94E8038DEA91E00E941D0477
:1009600008C08DEA91E00E9416048DEA91E00E9491
:100970005A04CE01DF91CF910895CF930E94930145
:10098000C0E00EC06C2F70E0660F771F660F771FF8
:10099000660F771F6A5D7E4F8C2F0E94B201CF5F7A
:1009A000C83080F3CF910895CF93DF93EC0160E0DE
:1009B00081E00E94F30183E00E9489018C85805DC3
:1009C0000E94A80160E085E00E94F301DF91CF91D1
:1009D0000895CF930E94850166E671E081E00E9450
:1009E000D00160E08BE00E94F3018DE00E9489015C
:1009F00080E090E00E940402CDEC8C9F812D1124B8
:100A0000869586958695805D0E94A80180E090E09D
:100A10000E9404028C9F912D11249695969596958F
:100A2000990F292F220F220F920F891B805D0E94A0
:100A3000A80161E771E081E10E94D00160E08BE0F4
:100A40000E94F3018DE00E94890181E090E00E9404
:100A500004028C9F812D1124869586958695805D54
:100A60000E94A80181E090E00E9404028C9FC12DA9
:100A70001124C695C695C695CC0F9C2F990F990F3A
:100A8000C90F8C1B805D0E94A801CF910895CF9360
:100A9000DF93EC018130910541F01CF4009779F06F
:100AA00010C08230910569F403C0C2E0D0E009C0F3
:100AB0008091B501882329F0C3E0D0E002C0C1E0F5
:100AC000D0E0C230D10549F0C330D10559F0C13072
:100AD000D10551F40E94BD0407C08DEA91E00E9447
:100AE000D40402C00E94E904CE01DF91CF910895A1
:100AF000CF93DF93CDB7DEB728970FB6F894DEBF5C
:100B00000FBECDBF8FEF81B912B884B915B887B9C0
:100B100018B880EC8AB98FE38BB988E0EEE1F1E098
:100B2000DE01119601900D928A95E1F7E2EAF1E07B
:100B3000108282E390E0A0E0B0E081839283A383FF
:100B4000B48385839683A783B0872EE634E032870B
:100B50002187E7E9F1E0108241E050E060E070E0D9
:100B6000418352836383748345835683678370878D
:100B700027E630E032872187ECE8F1E010824183FC
:100B800052836383748345835683678370872AE720
:100B900032E032872187E1E8F1E01082818392839D
:100BA000A383B48385839683A783B08787E495E086
:100BB00092878187E981FA8181809280A380B480C5
:100BC00001E010E014C0F801EE0FFF1FEC0FFD1F55
:100BD0000180F281E02D2181328143815481C50160
:100BE000B4010E943B014B015C010F5F1F4F0430B9
:100BF000110548F3C501B4010E94B0000E94C10074
:100C0000E12CF12C39C0F701EE0FFF1FEC0FFD1F97
:100C100001811281D80115964D915D916D917C9164
:100C2000189711968D919D910D90BC91A02D48170C
:100C300059076A077B0781F4D8011996ED91FC9159
:100C40001A978C91992787FD90950995F8018083D3
:100C50001582168217821086F80185819681A781F8
:100C6000B085880D991DAA1DBB1D85839683A7831A
:100C7000B087FFEFEF1AFF0A84E0E816F10418F2DC
:100C8000809180018823E1F310928001B9CFA1E225
:100C90001A2EAA1BBB1BFD010DC0AA1FBB1FEE1FF6
:100CA000FF1FA217B307E407F50720F0A21BB30B41
:100CB000E40BF50B661F771F881F991F1A9469F7BD
:100CC00060957095809590959B01AC01BD01CF0119
:100CD0000895CF93DF938230910510F482E090E085
:100CE000E091BC01F091BD0120E030E0C0E0D0E037
:100CF000309711F14081518148175907C0F04817CA
:100D0000590761F482819381209719F09B838A832C
:100D10002BC09093BD018093BC0126C021153105E5
:100D200019F04217530718F49A01BE01DF01EF01D1
:100D30000280F381E02DDCCF2115310509F1281B5C
:100D4000390B2430310590F412968D919C911397B4
:100D50006115710521F0FB019383828304C0909398
:100D6000BD018093BC01FD01329644C0FD01E20F3C
:100D7000F31F81939193225031092D933C933AC0F4
:100D80002091BA013091BB01232B41F4209116012F
:100D9000309117013093BB012093BA0120911401C7
:100DA000309115012115310541F42DB73EB7409121
:100DB000180150911901241B350BE091BA01F091F3
:100DC000BB01E217F307A0F42E1B3F0B28173907CE
:100DD00078F0AC014E5F5F4F2417350748F04E0F97
:100DE0005F1F5093BB014093BA018193919302C05E
:100DF000E0E0F0E0CF01DF91CF9108950F931F93D2
:100E0000CF93DF93009709F48CC0FC0132971382D3
:100E100012820091BC011091BD010115110581F4F0
:100E200020813181820F931F2091BA013091BB0143
:100E30002817390779F5F093BB01E093BA0171C027
:100E4000D80140E050E0AE17BF0750F412962D9144
:100E50003C911397AD012115310509F1D901F3CF6B
:100E60009D01DA013383228360817181860F971F90
:100E70008217930769F4EC0128813981260F371F07
:100E80002E5F3F4F318320838A819B8193838283AE
:100E9000452B29F4F093BD01E093BC0142C01396A9
:100EA000FC93EE931297ED01499159919E01240F05
:100EB000351FE217F30771F480819181840F951F2C
:100EC000029611969C938E938281938113969C93A4
:100ED0008E931297E0E0F0E0D80112968D919C91EC
:100EE0001397009719F0F8018C01F6CF8D919C9122
:100EF00098012E5F3F4F820F931F2091BA013091CE
:100F0000BB012817390769F4309729F41092BD0105
:100F10001092BC0102C0138212821093BB01009395
:100F2000BA01DF91CF911F910F9108958F929F92F7
:100F3000AF92BF92CF92DF92EF92FF92CF93DF9367
:100F4000EC01688179818A819B8161157105810538
:100F5000910521F464E279ED8BE597E02DE133EF23
:100F600041E050E00E94030849015A019B01AC0195
:100F7000A7EAB1E40E94F0076B017C01ACEEB4EF8C
:100F8000A50194010E94FE07DC01CB018C0D9D1D83
:100F9000AE1DBF1DB7FF03C00197A109B0488883EC
:100FA0009983AA83BB839F77DF91CF91FF90EF90C6
:100FB000DF90CF90BF90AF909F908F9008950C944A
:100FC00096078AE191E00C949607A0E0B0E0809348
:100FD0001A0190931B01A0931C01B0931D01089569
:100FE0000E942208A59F900DB49F900DA49F800D94
:100FF000911D11240895B7FF0C94F0070E94F0078B
:10100000821B930B0895052E97FB1EF400940E94FB
:101010001A0857FD07D00E94470607FC03D04EF47C
:101020000C941A0850954095309521953F4F4F4F9D
:101030005F4F089590958095709561957F4F8F4F84
:101040009F4F0895A29FB001B39FC001A39F700D51
:10105000811D1124911DB29F700D811D1124911DC0
:061060000895F894FFCF93
:10106600FEFDFBF7EFDFBF7F010204081020408082
:10107600010000000000BE01200001000000A201E6
:1010860097018C018101110A040A150A0400110A4C
:10109600040A150A0400110A040A150A0400110AB2
:1010A600040A150A0400110A040A150A0400110AA2
:1010B600040A150A0400110A040A150A0400110A92
:1010C600040A150A04004C6173742053636F726539
:0C10D60000546869732053636F7265005A
:00000001FF
